{
  "_format": "hh-sol-artifact-1",
  "contractName": "CarShop",
  "sourceName": "contracts/CarShop.sol",
  "abi": [
    {
      "inputs": [],
      "name": "_currCarId",
      "outputs": [
        {
          "internalType": "uint256",
          "name": "",
          "type": "uint256"
        }
      ],
      "stateMutability": "view",
      "type": "function"
    },
    {
      "inputs": [
        {
          "internalType": "address",
          "name": "owner",
          "type": "address"
        },
        {
          "internalType": "uint256",
          "name": "price",
          "type": "uint256"
        }
      ],
      "name": "addCar",
      "outputs": [
        {
          "internalType": "uint256",
          "name": "",
          "type": "uint256"
        }
      ],
      "stateMutability": "nonpayable",
      "type": "function"
    },
    {
      "inputs": [
        {
          "internalType": "uint256",
          "name": "",
          "type": "uint256"
        }
      ],
      "name": "carById",
      "outputs": [
        {
          "internalType": "uint256",
          "name": "id",
          "type": "uint256"
        },
        {
          "internalType": "address",
          "name": "owner",
          "type": "address"
        },
        {
          "internalType": "uint256",
          "name": "price",
          "type": "uint256"
        },
        {
          "internalType": "bool",
          "name": "isSell",
          "type": "bool"
        }
      ],
      "stateMutability": "view",
      "type": "function"
    },
    {
      "inputs": [
        {
          "internalType": "uint256",
          "name": "",
          "type": "uint256"
        }
      ],
      "name": "carIds",
      "outputs": [
        {
          "internalType": "uint256",
          "name": "",
          "type": "uint256"
        }
      ],
      "stateMutability": "view",
      "type": "function"
    },
    {
      "inputs": [
        {
          "internalType": "uint256",
          "name": "",
          "type": "uint256"
        }
      ],
      "name": "carSellIds",
      "outputs": [
        {
          "internalType": "uint256",
          "name": "",
          "type": "uint256"
        }
      ],
      "stateMutability": "view",
      "type": "function"
    },
    {
      "inputs": [],
      "name": "getCarIds",
      "outputs": [
        {
          "internalType": "uint256[]",
          "name": "",
          "type": "uint256[]"
        }
      ],
      "stateMutability": "view",
      "type": "function"
    },
    {
      "inputs": [],
      "name": "getSellCarIds",
      "outputs": [
        {
          "internalType": "uint256[]",
          "name": "",
          "type": "uint256[]"
        }
      ],
      "stateMutability": "view",
      "type": "function"
    },
    {
      "inputs": [
        {
          "internalType": "uint256",
          "name": "carId",
          "type": "uint256"
        },
        {
          "internalType": "address",
          "name": "token",
          "type": "address"
        }
      ],
      "name": "sellCar",
      "outputs": [],
      "stateMutability": "nonpayable",
      "type": "function"
    }
  ],
  "bytecode": "0x608060405234801561001057600080fd5b50610a64806100206000396000f3fe608060405234801561001057600080fd5b50600436106100885760003560e01c8063713f86721161005b578063713f86721461012a578063740c0f5c1461014857806382d29dc714610178578063f416fc1d146101a857610088565b80631ae61ec41461008d578063369aafd3146100ab5780633758a0cb146100c75780633b125521146100f7575b600080fd5b6100956101c6565b6040516100a2919061082d565b60405180910390f35b6100c560048036038101906100c09190610660565b6101cc565b005b6100e160048036038101906100dc91906105d2565b610368565b6040516100ee919061082d565b60405180910390f35b610111600480360381019061010c9190610637565b61043e565b6040516101219493929190610848565b60405180910390f35b61013261049b565b60405161013f91906107cb565b60405180910390f35b610162600480360381019061015d9190610637565b6104f3565b60405161016f919061082d565b60405180910390f35b610192600480360381019061018d9190610637565b610517565b60405161019f919061082d565b60405180910390f35b6101b061053b565b6040516101bd91906107cb565b60405180910390f35b60005481565b6000548210610210576040517f08c379a00000000000000000000000000000000000000000000000000000000081526004016102079061080d565b60405180910390fd5b60006003600084815260200190815260200160002090508173ffffffffffffffffffffffffffffffffffffffff166323b872dd338360010160009054906101000a900473ffffffffffffffffffffffffffffffffffffffff1684600201546040518463ffffffff1660e01b815260040161028c93929190610794565b602060405180830381600087803b1580156102a657600080fd5b505af11580156102ba573d6000803e3d6000fd5b505050506040513d601f19601f820116820180604052508101906102de919061060e565b61031d576040517f08c379a0000000000000000000000000000000000000000000000000000000008152600401610314906107ed565b60405180910390fd5b60018160030160006101000a81548160ff0219169083151502179055506002839080600181540180825580915050600190039060005260206000200160009091909190915055505050565b60008060008081546103799061091f565b91905081905590506000600360008381526020019081526020016000209050818160000181905550848160010160006101000a81548173ffffffffffffffffffffffffffffffffffffffff021916908373ffffffffffffffffffffffffffffffffffffffff16021790555083816002018190555060008160030160006101000a81548160ff0219169083151502179055506001829080600181540180825580915050600190039060005260206000200160009091909190915055819250505092915050565b60036020528060005260406000206000915090508060000154908060010160009054906101000a900473ffffffffffffffffffffffffffffffffffffffff16908060020154908060030160009054906101000a900460ff16905084565b606060018054806020026020016040519081016040528092919081815260200182805480156104e957602002820191906000526020600020905b8154815260200190600101908083116104d5575b5050505050905090565b6001818154811061050357600080fd5b906000526020600020016000915090505481565b6002818154811061052757600080fd5b906000526020600020016000915090505481565b6060600280548060200260200160405190810160405280929190818152602001828054801561058957602002820191906000526020600020905b815481526020019060010190808311610575575b5050505050905090565b6000813590506105a2816109e9565b92915050565b6000815190506105b781610a00565b92915050565b6000813590506105cc81610a17565b92915050565b600080604083850312156105e557600080fd5b60006105f385828601610593565b9250506020610604858286016105bd565b9150509250929050565b60006020828403121561062057600080fd5b600061062e848285016105a8565b91505092915050565b60006020828403121561064957600080fd5b6000610657848285016105bd565b91505092915050565b6000806040838503121561067357600080fd5b6000610681858286016105bd565b925050602061069285828601610593565b9150509250929050565b60006106a88383610776565b60208301905092915050565b6106bd816108d7565b82525050565b60006106ce8261089d565b6106d881856108b5565b93506106e38361088d565b8060005b838110156107145781516106fb888261069c565b9750610706836108a8565b9250506001810190506106e7565b5085935050505092915050565b61072a816108e9565b82525050565b600061073d6019836108c6565b915061074882610997565b602082019050919050565b60006107606016836108c6565b915061076b826109c0565b602082019050919050565b61077f81610915565b82525050565b61078e81610915565b82525050565b60006060820190506107a960008301866106b4565b6107b660208301856106b4565b6107c36040830184610785565b949350505050565b600060208201905081810360008301526107e581846106c3565b905092915050565b6000602082019050818103600083015261080681610730565b9050919050565b6000602082019050818103600083015261082681610753565b9050919050565b60006020820190506108426000830184610785565b92915050565b600060808201905061085d6000830187610785565b61086a60208301866106b4565b6108776040830185610785565b6108846060830184610721565b95945050505050565b6000819050602082019050919050565b600081519050919050565b6000602082019050919050565b600082825260208201905092915050565b600082825260208201905092915050565b60006108e2826108f5565b9050919050565b60008115159050919050565b600073ffffffffffffffffffffffffffffffffffffffff82169050919050565b6000819050919050565b600061092a82610915565b91507fffffffffffffffffffffffffffffffffffffffffffffffffffffffffffffffff82141561095d5761095c610968565b5b600182019050919050565b7f4e487b7100000000000000000000000000000000000000000000000000000000600052601160045260246000fd5b7f4661696c656420746f207472616e7366657220746f6b656e7300000000000000600082015250565b7f436172206964206973206f7574206f662072616e676500000000000000000000600082015250565b6109f2816108d7565b81146109fd57600080fd5b50565b610a09816108e9565b8114610a1457600080fd5b50565b610a2081610915565b8114610a2b57600080fd5b5056fea2646970667358221220cc1ae6137008c312e6717279a91f9e8c421a8ee20786241981f2b8015780c34f64736f6c63430008040033",
  "linkReferences": {},
  "deployedLinkReferences": {}
}